:100000000C9463000C948B000C948B000C948B006C
:100010000C948B000C948B000C948B000C948B0034
:100020000C948B000C948B000C948B000C948B0024
:100030000C948B000C948B000C948B000C948B0014
:100040000C9493080C948B000C9403090C94DD0819
:100050000C948B000C948B000C948B000C948B00F4
:100060000C948B000C948B000000000024002700EF
:100070002A000000000023002600290000000000E4
:10008000250028002B0004040404040404040202D4
:100090000202020203030303030301020408102007
:1000A0004080010204081020010204081020000012
:1000B0000008000201000003040700000000000027
:1000C00000003509A50C11241FBECFEFD8E0DEBF1C
:1000D000CDBF11E0A0E0B1E0EAEFF2E202C005908E
:1000E0000D92A23BB107D9F722E0A2EBB1E001C02B
:1000F0001D92AD3AB207E1F710E0C2E6D0E004C0CD
:100100002197FE010E94590DC136D107C9F70E94FF
:100110009C090C9470110C9400008F929F92AF92E6
:10012000BF92CF92DF92EF92FF92CF9320919502F0
:100130003091960282179307E8F54B01AA24BB245D
:10014000C82DC52ED62EE72EFF24BC2DA42F20911E
:100150009B02222361F0829E40011124C92D2C9D17
:1001600060011124BD2D249FF0011124AF2FE091D7
:10017000A102E0909C02F0909D0230919E02E31358
:1001800023C09C01220F331F820F931F8E0D9F1DD2
:10019000E0919E02E80FF92FF11DC083E0919F02CC
:1001A000E80FF92FF11DB0832091A002820F911D5D
:1001B000FC01A083CF91FF90EF90DF90CF90BF9094
:1001C000AF909F908F900895880F991F880F991F67
:1001D0008E0D9F1D472F552766277727222349F02D
:1001E00030E0249F7001259FF00C349FF00C112407
:1001F0004F2DE80FF92FF11D4083CACFCF92DF9228
:10020000EF92FF92F62E9C01AAEFB5E00E94270D17
:10021000AB01BC0150586F4F7F4FAB01772757FDA3
:100220007095672F4E3F81E0580708F049C0B42F02
:100230004F3F510508F463C0AEEFA41B90E0BFEF41
:10024000EF2DF0E03196F0942F2D30E0BE9FA0010D
:10025000BF9F500D1124452F5527420F531F70E0AB
:1002600060E0762F652F542F442744276627772791
:100270009E9F60019F9FD00C1124CD2CDD24C20EC7
:10028000D31EF12CE12CC42AD52AE62AF72AAE9FE8
:10029000C001AF9F900D1124892F9927820F931FC2
:1002A000B0E0A0E0772766276627772799276C2993
:1002B0007D298E299F29FF90EF90DF90CF900895A0
:1002C0004C3F83E0580760F492E0940FBFEF4D3F3E
:1002D00082E0580718F0BCEFB41B9FEFA0E0B0CF4E
:1002E0004A3F85E0580771F09AEF941B4B3F84E03A
:1002F000580748F4A4E0A40F9FEFB0E0A1CF90E02E
:10030000AFEF9ECF90E0B0E0FBCF1F93CF93DF9392
:1003100011E0180F20919B021217A1F1C0919C02CD
:10032000D0919D02215070E060E061F08F3FF1F4C8
:1003300030E050E040E06FEF7FEF80E090E00E941F
:10034000D30CB901FE014091970250919802CF0160
:100350008C1B9D0B8417950798F44081469FC00124
:10036000479F900D112490833196EDCF812F90E01F
:10037000982F88270197622F70E00E94360DE2CFF8
:1003800010939B02DF91CF911F910895833081F0EC
:1003900028F4813099F08230A9F008958730A9F0CF
:1003A0008830C9F08430B1F4809180008F7D03C023
:1003B000809180008F7780938000089584B58F7737
:1003C00084BD089584B58F7DFBCF8091B0008F7779
:1003D0008093B00008958091B0008F7DF9CFCF93C6
:1003E000DF93282F30E0F901E255FF4F8491F901A6
:1003F000E656FF4FD491F901EA57FF4FC491CC2341
:1004000091F081110E94C601EC2FF0E0EE0FFF1F6A
:10041000E458FF4FA591B4918FB7F894EC91D09523
:10042000DE23DC938FBFDF91CF910895CF93DF93CD
:10043000282F30E0F901E255FF4F8491F901E6568B
:10044000FF4FD491F901EA57FF4FC491CC23A1F09B
:1004500081110E94C601EC2FF0E0EE0FFF1FEE5855
:10046000FF4FA591B491EC91ED2381E090E009F468
:1004700080E0DF91CF91089580E090E0FACFCF93B4
:10048000DF9390E0FC01E656FF4F24918A579F4F7F
:10049000FC0184918823C9F090E0880F991FFC012A
:1004A000E859FF4FA591B491FC01E458FF4FC59165
:1004B000D49161110DC09FB7F8948C91209582233F
:1004C0008C938881282328839FBFDF91CF91089543
:1004D000623051F49FB7F8943C91822F809583232A
:1004E0008C93E8812E2BEFCF8FB7F894EC912E2BC5
:1004F0002C938FBFEACF8091990290919A0297FD39
:1005000007C061E00E943F02809199020E94EF01C2
:1005100081E0809394020895CF93DF93EC01809162
:100520009402882349F08091990290919A0297FD54
:1005300003C060E00E943F02C0939902D0939A02E8
:1005400080919402882339F061E08C2F0E943F0251
:100550008C2F0E94EF01FE01EA57FF4FE491F0E07B
:10056000EE0FFF1FE458FF4F259134913093A702FF
:100570002093A602FE01E656FF4FE491E093A80205
:10058000DF91CF9108958E50806480937C0080919C
:100590007A00806480937A0080917A0086FDFCCF97
:1005A000809178009091790008953FB7F8948091F8
:1005B000E4019091E501A091E601B091E70126B533
:1005C000A89B05C02F3F19F00196A11DB11D3FBF8B
:1005D000BA2FA92F982F8827BC01CD01620F711D5A
:1005E000811D911D42E0660F771F881F991F4A9554
:1005F000D1F708950F931F93CF93DF93CDB7DEB755
:1006000029970FB6F894DEBF0FBECDBF80919C0234
:1006100090919D02892B09F47CC00E94D502009123
:10062000A2021091A3022091A4023091A5026017AA
:1006300071078207930740F46093A2027093A302AC
:100640008093A4029093A5020091A2021091A302AC
:100650002091A4023091A502601B710B820B930BB9
:100660006C32714081059105C0F2F8948091970237
:10067000909198029A838983E0919C02F0919D0267
:10068000DF0111968081898790919302E091A60203
:10069000F091A7028091A802992309F445C09081A6
:1006A000982B98879081809589238F838F818C8365
:1006B00088E08B8358856F8149853B812C818981B6
:1006C0009A81508347FD252F3A952083262F39F0B4
:1006D000441F00C000006083000000C0F2CF38E07B
:1006E0004D9160830000019761F7F093A702E093BA
:1006F000A60249873B832C839A83898378940E943E
:10070000D5026093A2027093A3028093A4029093F7
:10071000A50229960FB6F894DEBF0FBECDBFDF91BC
:10072000CF911F910F9108959081982B9887908178
:10073000809589238F838F818E8388E08D83588570
:100740006F8149853D812E8189819A81508347FD42
:10075000252F00C000C0208300C000C000C000C022
:1007600000C060830000262F3A9541F0441F00002E
:1007700000C000C000C000C000C0E8CF38E04D910C
:1007800000C0608300C0019709F7F093A702E093CF
:10079000A60249873D832E83AFCF8F929F92AF925F
:1007A000BF92CF92DF92EF92FF926B017C010E9489
:1007B000D5024B015C01C114D104E104F104B9F08C
:1007C0000E94D502681979098A099B09683E73401D
:1007D0008105910580F321E0C21AD108E108F108F2
:1007E00088EE880E83E0981EA11CB11CE4CFFF9018
:1007F000EF90DF90CF90BF90AF909F908F90089533
:100800002FB7F8946091E0017091E1018091E201CD
:100810009091E3012FBF0895AF92BF92CF92DF92E4
:10082000EF92FF920F931F93CF93DF936C017B01A5
:100830008B01040F151FEB015E01AE18BF08C01736
:10084000D10759F06991D601ED91FC910190F081A9
:10085000E02DC6010995892B79F7C501DF91CF916C
:100860001F910F91FF90EF90DF90CF90BF90AF90CE
:100870000895FC01538D448D252F30E0842F90E0A6
:10088000821B930B541710F0CF960895019708958B
:10089000FC01918D828D981761F0A28DAE0FBF2F54
:1008A000B11D5D968C91928D9F5F9F73928F90E0AA
:1008B00008958FEF9FEF0895FC01918D828D981719
:1008C00031F0828DE80FF11D858D90E008958FEF56
:1008D0009FEF0895FC01918D228D892F90E0805C1F
:1008E0009F4F821B91098F739927089588EE91E09D
:1008F0000E946A0421E0892B09F420E0822F0895E8
:1009000080E090E0892B29F00E94760481110C94FC
:1009100000000895FC01A48DA80FB92FB11DA35AA2
:10092000BF4F2C91848D90E001968F739927848F0F
:10093000A689B7892C93A089B1898C918370806432
:100940008C93938D848D981306C00288F389E02DD3
:1009500080818F7D80830895EF92FF920F931F9384
:10096000CF93DF93EC0181E0888F9B8D8C8D981362
:100970001AC0E889F989808185FF15C09FB7F8946E
:10098000EE89FF896083E889F989808183708064BA
:1009900080839FBF81E090E0DF91CF911F910F9105
:1009A000FF90EF900895F62E0B8D10E00F5F1F4F14
:1009B0000F731127E02E8C8D8E110CC00FB607FC23
:1009C000FACFE889F989808185FFF5CFCE010E94B1
:1009D0008A04F1CFEB8DEC0FFD2FF11DE35AFF4F91
:1009E000F0829FB7F8940B8FEA89FB89808180623F
:1009F000CFCFCF93DF93EC01888D8823B9F0AA89FC
:100A0000BB89E889F9898C9185FD03C0808186FDC9
:100A10000DC00FB607FCF7CF8C9185FFF2CF808118
:100A200085FFEDCFCE010E948A04E9CFDF91CF91FF
:100A30000895FC01808191810C94FB0DCF92DF928F
:100A4000EF92FF920F931F93CF93DF938C016A0174
:100A5000EB01CB010896D80113969C938E931297C5
:100A600015967C936E931497880F991F0E945F0DC3
:100A7000F80180839183FC0190E080E0C817D907DA
:100A800069F0309729F0D6012D913C913183208374
:100A900001963296B2E0CB0ED11CF0CFDF91CF9110
:100AA0001F910F91FF90EF90DF90CF900895CF921C
:100AB000DF92EF92FF920F931F93CF93DF93EC019E
:100AC0008B016817790709F480C0DB0114968D91BA
:100AD0009C912A813B812817390708F5EC80FD801D
:100AE000C880D9809B838A83880F991F0E945F0DDD
:100AF00088839983FC01D60190E080E0E816F9062E
:100B000059F0309729F02D913C9111973183208332
:100B1000019632961296F2CFC6010E94FB0D8C818F
:100B20009D81F801248135818217930708F49C0187
:100B300090E080E08217930791F0AC01440F551FBD
:100B4000F801A081B181A40FB51F6D917C91E8815E
:100B5000F981E40FF51F718360830196EBCF8C81DF
:100B60009D81D80114962D913C918217930718F519
:100B70009C01220F331FF80144815581841795078A
:100B8000D0F4E881F981E20FF31F309751F0D801DA
:100B90004D915C91DA01A20FB31F4D915C9151838D
:100BA00040834C815D814F5F5F4F5D834C83019635
:100BB0002E5F3F4FE0CFF801848195812C813D81EC
:100BC0008217930710F49D838C83CE01DF91CF9120
:100BD0001F910F91FF90EF90DF90CF9008950F93AA
:100BE0001F93CF93DF938C0180919C0290919D0283
:100BF0000E94FB0D9091A10280919E02981721F115
:100C000084E090E0809FE001819FD00D909FD00D07
:100C10001124D0939802C0939702CE010E945F0DD9
:100C200090939D0280939C02009789F0AE0170E042
:100C300060E00E94840E1093960200939502DF916B
:100C4000CF911F910F91089583E090E0DBCF109238
:100C50009802109297021092960210929502EFCF8E
:100C60008F929F92AF92BF92CF92DF92EF92FF92BC
:100C70000F931F93CF93DF93EC018B017A01CA018D
:100C80000E94EF05C8010E948C020E947B028881AD
:100C90000E9485010E811F8117FD03C00E151F05DF
:100CA00014F010E000E06A818C819D810E94FE00BA
:100CB0004B015C01D12CC12CCE14DF0454F440E074
:100CC00050E0BA01C6010E948D008FEFC81AD80A01
:100CD000F3CFB501A401C8010E948D000E811F81D0
:100CE0008E819F8128853985820F931F08171907E8
:100CF000A4F40E151F058CF4E0910201F09103019C
:100D00006281848195810E94FE00AB01BC01C80113
:100D10000E948D000F5F1F4FE3CFDF91CF911F9196
:100D20000F91FF90EF90DF90CF90BF90AF909F908A
:100D30008F900C94FA028F929F92AF92BF92CF92B3
:100D4000DF92EF92FF920F931F93CF93DF935C019B
:100D5000F12CE12CCAE2D1E08E01F801C280D380EF
:100D6000C6010E94EF05F801808191810E948C02EA
:100D70000E947B02912C812C8C149D0454F440E041
:100D800050E0BA01C4010E948D00FFEF8F1A9F0A44
:100D9000F3CF0E94FA020A5F1F4F81E00C3318075D
:100DA000E1F664E670E080E090E00E94CD034A81C5
:100DB0005B81688179818C819D810E9430062696B5
:100DC0000C171D07A1F764E670E080E090E00E9438
:100DD000CD03EFEFEE1AFE0AAE14BF0409F0BACF4E
:100DE000DF91CF911F910F91FF90EF90DF90CF9007
:100DF000BF90AF909F908F9008958091DD0190916A
:100E0000DE0126E0289FF001299FF00D1124E65D08
:100E1000FE4F4281538160817181848195810C9460
:100E20003006EF92FF920F931F93CF93DF937C01D5
:100E300010E000E0D0E0C0E0809104019091050155
:100E4000C817D90744F440E050E0BA01CE010E942F
:100E50008D002196F1CF0E94FA0264E670E080E0F6
:100E600090E00E94CD030E94FD0664E670E080E001
:100E700090E00E94CD030F5F1F4FE016F106D1F600
:100E8000DF91CF911F910F91FF90EF9008958F9276
:100E90009F92AF92BF92CF92DF92EF92FF920F9309
:100EA0001F93CF93DF93CDB7DEB7CD56D1090FB6E1
:100EB000F894DEBF0FBECDBF8C01FC01848195810B
:100EC0009A838983828193819C838B8380819181A2
:100ED0009E838D838681978198878F838085918576
:100EE0009A878987CE0101967C01AC0165E070E0AC
:100EF0008A599F4F0E941E05BE0169597F4F85E8A0
:100F000092E00E945705CE0189599F4F0E94190512
:100F100080E293E0A9969FAF8EAFA99785E090E01D
:100F2000AB969FAF8EAFAB97AD969FAF8EAFAD97A1
:100F30001092D001A0908902B0908A02FE01E95976
:100F4000FF4F4F014091850250918602A0918C0283
:100F5000B0918D0290E080E08A159B05D1F0FA01F6
:100F600061917191AF01CD90DD909B012C193D09EC
:100F7000121613061CF09601261B370BF401619123
:100F800071914F01621773070CF066C081E0809386
:100F9000D0018091D001882309F444C01F921F9290
:100FA0008091D6018F938091D5018F931F921F92CC
:100FB000F80181858F9380858F9387818F938681B8
:100FC0008F9381818F9380818F9383818F9382818F
:100FD0008F9385818F9384818F938EE491E09F938B
:100FE0008F931F9286E68F93FF92EF920E948B0E53
:100FF000F70101900020E9F73197AF014E195F0921
:10100000B70188EE91E00E940C0442E050E06EEAE5
:1010100071E088EE91E00E940C040FB6F894DEBFF8
:101020000FBECDBF65E872E08CE892E00E945705E4
:10103000C359DF4F0FB6F894DEBF0FBECDBFDF91AF
:10104000CF911F910F91FF90EF90DF90CF90BF90C5
:10105000AF909F908F90089501967ECF9F92AF9210
:10106000BF92CF92DF92EF92FF920F931F93CF9395
:10107000DF930091DD011091DE018EE1809F700110
:10108000819FF00C112486E0809FF001819FF00D7C
:101090001124E65DFE4FC481D5816E018AE0C80E41
:1010A000D11CEC1AFD0A99905701AC0EBD1EC5016A
:1010B0000E94BD0C981621F0692DC5010E94C50C37
:1010C000CC15DD0581F7C801019663E070E00E9450
:1010D000360D9093DE018093DD0126E0289FF0011C
:1010E000299FF00D1124E65DFE4F84819581909338
:1010F0000301809302018081918190930701809385
:101100000601828193819093050180930401DF9110
:10111000CF911F910F91FF90EF90DF90CF90BF90F4
:10112000AF909F9008951F920F920FB60F921124C7
:101130002F933F938F939F93AF93BF938091E00141
:101140009091E101A091E201B091E3013091DF01C2
:1011500023E0230F2D3758F50196A11DB11D2093D3
:10116000DF018093E0019093E101A093E201B0934D
:10117000E3018091E4019091E501A091E601B09135
:10118000E7010196A11DB11D8093E4019093E50153
:10119000A093E601B093E701BF91AF919F918F912A
:1011A0003F912F910F900FBE0F901F90189526E83A
:1011B000230F0296A11DB11DD2CF1F920F920FB621
:1011C0000F9211242F933F934F935F936F937F93CD
:1011D0008F939F93AF93BF93EF93FF9388EE91E02C
:1011E0000E948A04FF91EF91BF91AF919F918F91DF
:1011F0007F916F915F914F913F912F910F900FBE13
:101200000F901F9018951F920F920FB60F921124F6
:101210002F938F939F93EF93FF93E091F801F091B9
:10122000F9018081E091FE01F091FF0182FD1BC078
:101230009081809101028F5F8F732091020282174B
:1012400041F0E0910102F0E0E851FE4F958F80936C
:101250000102FF91EF919F918F912F910F900FBEFF
:101260000F901F9018958081F4CFCF93DF93E8EE15
:10127000F1E01382128288EE93E0A0E0B0E0848374
:101280009583A683B78380E491E09183808385EC86
:1012900090E09587848784EC90E09787868780EC40
:1012A00090E0918B808B81EC90E0938B828B82EC31
:1012B00090E0958B848B86EC90E0978B868B118EDB
:1012C000128E138E148EC0910601D09107012091C9
:1012D000040130910501E3E9F2E0118210861286E3
:1012E00011861786108A118A128A1686138691E053
:1012F000948782E085879083C9010E94EF05CE0123
:101300000E948C0240910E0150910F0160911001DA
:10131000709111018CE892E00E941E05409112012B
:1013200050911301609114017091150185E892E0CC
:10133000DF91CF910C941E05CF93DF9300D000D0A6
:101340001F92CDB7DEB7789484B5826084BD84B532
:10135000816084BD85B5826085BD85B5816085BDB0
:1013600080916E00816080936E0010928100809168
:1013700081008260809381008091810081608093F0
:101380008100809180008160809380008091B10015
:1013900084608093B1008091B00081608093B00040
:1013A00080917A00846080937A0080917A008260D4
:1013B00080937A0080917A00816080937A00809196
:1013C0007A00806880937A001092C100E091F80161
:1013D000F091F90182E08083E091F401F091F50150
:1013E0001082E091F601F091F7018FEC808310926A
:1013F0000002E091FC01F091FD0186E08083E09124
:10140000FA01F091FB01808180618083E091FA0113
:10141000F091FB01808188608083E091FA01F09176
:10142000FB01808180688083E091FA01F091FB01EB
:1014300080818F7D80839AE2C92E91E0D92E01E0D0
:1014400010E0D6011496AD90BC904801BAE08B0E26
:10145000911C7801C7010E94BD0CF50181935F01C9
:10146000FFEFEF1AFF0A8E149F04A1F726E0C20EC9
:10147000D11C025E1F4F0B35110519F78091DD015C
:101480009091DE0126E0289FF001299FF00D1124A4
:10149000E65DFE4F84819581909303018093020164
:1014A0000E942E080E94FD060E942E080E94FD0642
:1014B0000E942E080E94FD0662E08BE00E943F021F
:1014C00062E08CE00E943F020E94FD0644244A94A0
:1014D00083E0582E612C712C8BE00E94160221E0D3
:1014E000892B09F420E02A839A81809100019817C2
:1014F000F1F10E9400046093D1017093D2018093B6
:10150000D3019093D4010E940004633371058105D7
:10151000910568F18A81809300018A81811127C039
:101520008091D5019091D60101969093D601809338
:10153000D5010E9400046093D1017093D201809381
:10154000D3019093D4011092DC011092DB010E9430
:101550002E080E94FD068091D5019091D60183301E
:10156000910509F05DC084E090E00E949B068CE04C
:101570000E94160221E0892B09F420E02983998139
:1015800080910101981781F10E9400046093D701B6
:101590007093D8018093D9019093DA010E940004DE
:1015A0006333710581059105F8F08981809301010C
:1015B0008981811119C00E9400046093D701709342
:1015C000D8018093D9019093DA018091D50190914F
:1015D000D60183309105A1F59093DC018093DB0166
:1015E00081E090E00E949B068091DB019091DC01FC
:1015F0008230910509F42AC108F041C0019709F42D
:101600006DC08091DD019091DE01A6E0A89FF00100
:10161000A99FF00D1124E65DFE4F84819581F1C0F4
:10162000039748F41092DC011092DB0184E090E013
:101630000E9411079CCF1092D6011092D501F2CFD3
:101640008091DB019091DC01009749F481E090E00A
:101650009093DC018093DB010E941107C5CF81309C
:10166000910549F4A2E0B0E0B093DC01A093DB0166
:1016700082E090E0F1CF029709F0B6CFE7CF833058
:10168000910509F46DC0049709F0BBCF0AE211E09F
:10169000F801E280F380C7010E94EF05D8018D9127
:1016A0009C910E948C020E947B02D12CC12CCE14F2
:1016B000DF0454F440E050E0BA01C6010E948D00FE
:1016C000BFEFCB1ADB0AF3CF0E94FA020A5F1F4F6B
:1016D000ECE3F1E0E017F107D9F693CF8EE00E943A
:1016E000C3025C018FE00E94C3026C0180E10E9492
:1016F000C3027C0100910201109103012FEF30E041
:10170000D5010E94520DA30192010E94D30CD80171
:101710002D933C932FEF30E0D6010E94520DA30190
:1017200092010E94D30CF801338322832FEF3FEF05
:10173000D7010E94520DA30192010E94D30CD8013F
:1017400015963C932E9314974091040150910501F6
:101750006091060170910701C8010E94300651CFC7
:101760008EE00E94C3026C018FE00E94C3027C01E4
:1017700080E10E94C3028C012FEF30E0D6010E946D
:10178000520DA30192010E94D30C59012FEF30E0BA
:10179000D7010E94520DA30192010E94D30C69014E
:1017A0002FEF3FEFD8010E94520DA30192010E943A
:1017B000D30C79010AE211E0D8011496ED91FC9165
:1017C0001597B182A082D382C282F582E4821296FA
:1017D0004D915C9113976D917C91CF010E943006E1
:1017E0000A5F1F4FECE3F1E0E017F10729F786EC01
:1017F00091E00E9447078CEB91E00E94470782EB43
:1018000091E00E9447078091DD019091DE0126E082
:10181000289FF001299FF00D1124E65DFE4F848181
:1018200095810E94470765E070E080E090E00E94AB
:10183000CD0380E090E0892B09F44ECE0E9476041F
:10184000882309F449CE0E94000046CE8EE00E9413
:10185000C3028C0180E10E94C3026C018FE00E94F0
:10186000C3027C012FEF30E0D8010E94520DA3018A
:1018700092010E94D30C2B8320900201309003012F
:10188000D1012C9311963C93009104011091050114
:10189000980121503109D6010E944A0D28EE33E00B
:1018A00040E050E00E94D30C49013D832C83980115
:1018B000012E000C440B550B2150310941095109EF
:1018C000D7010E94FD0C28EE33E040E050E00E947A
:1018D000D30CDA01C9010196A11DB11D6C01F10102
:1018E00097828682918780878B810E948501F12C67
:1018F000E12CE016F10654F440E050E0BA01C701D3
:101900000E948D00FFEFEF1AFF0AF3CF8C819D81BB
:10191000C80ED91E8C149D04ACF48016910694F464
:10192000D10112966C91129714968D919C910E9400
:10193000FE00AB01BC01C4010E948D00BFEF8B1AF9
:101940009B0AE8CF0E94FA025CCE85E892E00E94F2
:1019500019058CE892E00E94190580919C029091F3
:101960009D020E94FB0D8091990290919A0297FD31
:1019700003C060E00C943F020895F999FECF92BD38
:1019800081BDF89A992780B50895262FF999FECF41
:101990001FBA92BD81BD20BD0FB6F894FA9AF99A8C
:1019A0000FBE01960895052E97FB1EF400940E9429
:1019B000EA0C57FD07D00E94050D07FC03D04EF43A
:1019C0000C94EA0C50954095309521953F4F4F4F20
:1019D0005F4F089590958095709561957F4F8F4FDB
:1019E0009F4F08950E94270DA59F900DB49F900DC5
:1019F000A49F800D911D11240895B7FF0C94F20C43
:101A00000E94F20C821B930B0895A1E21A2EAA1BCE
:101A1000BB1BFD010DC0AA1FBB1FEE1FFF1FA2179E
:101A2000B307E407F50720F0A21BB30BE40BF50B9B
:101A3000661F771F881F991F1A9469F76095709524
:101A4000809590959B01AC01BD01CF010895A29FA7
:101A5000B001B39FC001A39F700D811D1124911D82
:101A6000B29F700D811D1124911D0895AA1BBB1BEF
:101A700051E107C0AA1FBB1FA617B70710F0A61B8E
:101A8000B70B881F991F5A95A9F780959095BC01AF
:101A9000CD0108950E94270D332312F48A1B9B0B5E
:101AA0000C94540D0E94270DB7FF0895821B930BD1
:101AB0000895EE0FFF1F0590F491E02D09940F9308
:101AC0001F93CF93DF938230910510F482E090E072
:101AD000E091AB02F091AC0230E020E0B0E0A0E099
:101AE000309799F42115310509F44AC0281B390BA8
:101AF00024303105D8F58A819B816115710589F102
:101B0000FB0193838283FE0111C0408151810281D8
:101B1000138148175907E0F04817590799F41097AF
:101B200061F012960C93129713961C933296CF0184
:101B3000DF91CF911F910F9108950093AB02109305
:101B4000AC02F4CF2115310551F04217530738F09C
:101B5000A901DB019A01BD01DF01F801C1CFEF014D
:101B6000F9CF9093AC028093AB02CDCFFE01E20F90
:101B7000F31F819391932250310939832883D7CF62
:101B80002091A9023091AA02232B41F420910A014D
:101B900030910B013093AA022093A90220910801F1
:101BA000309109012115310541F42DB73EB740911F
:101BB0000C0150910D01241B350BE091A902F0910D
:101BC000AA02E217F307A0F42E1B3F0B28173907D0
:101BD00078F0AC014E5F5F4F2417350748F04E0F89
:101BE0005F1F5093AA024093A902819391939FCFC4
:101BF000F0E0E0E09CCFCF93DF930097E9F0FC01A9
:101C0000329713821282A091AB02B091AC02ED0127
:101C100030E020E01097A1F420813181820F931FE2
:101C20002091A9023091AA022817390709F061C052
:101C3000F093AA02E093A902DF91CF910895EA01FF
:101C4000CE17DF07E8F54A815B819E0141155105FA
:101C5000B1F7E901FB83EA8349915991C40FD51F7C
:101C6000EC17FD0761F4808191810296840F951F26
:101C7000E90199838883828193819B838A83F0E041
:101C8000E0E012968D919C9113970097B9F52D91F4
:101C90003C911197CD010296820F931F2091A902CA
:101CA0003091AA022817390739F6309751F510926A
:101CB000AC021092AB02B093AA02A093A902BCCFCF
:101CC000D383C28340815181840F951FC817D907E0
:101CD00061F44E5F5F4F88819981480F591F51838E
:101CE00040838A819B81938382832115310509F08A
:101CF000B0CFF093AC02E093AB029ECFFD01DC01CC
:101D0000C0CF13821282D7CFDC0101C06D93415046
:101D10005040E0F70895AEE0B0E0E1E9FEE00C9459
:101D200047110D891E898F89988D26E02C831A838F
:101D3000098397FF02C080E090E801979E838D831E
:101D4000AE01455E5F4F698D7A8DCE0101960E948E
:101D5000BB0E4D815E8157FD0AC02F813885421729
:101D600053070CF49A01020F131FF80110822E96EC
:101D7000E4E00C946311ABE0B0E0E1ECFEE00C9425
:101D800039117C013B018A01FC0117821682838193
:101D900081FFC8C1CE0101965C01F7019381F30177
:101DA00093FD859193FF81913F01882309F453C1ED
:101DB000853239F493FD859193FF81913F018532FE
:101DC00029F4B70190E00E94AB10E7CF912C212CB1
:101DD000312CFFE1F31538F08B3211F190F48032A1
:101DE00009F1833229F137FC3CC020ED280F2A305D
:101DF00050F536FE20C08AE0989E200D1124922EC8
:101E000006C08D3291F0803371F7689430F8F30199
:101E100093FD859193FF81913F018111DACF21C01C
:101E2000689431F8689432F8F2CF689433F8EFCFC1
:101E3000689434F8ECCFEAE02E9E200D1124222E77
:101E4000689435F8E4CF8E3229F436FC04C16894E6
:101E500036F8DDCF8C3619F4689437F8D8CF883649
:101E6000B1F2982F9F7D95549330E0F08336A1F125
:101E70008337C1F1833509F063C02801F2E04F0ECA
:101E8000511CF801C080D180692D70E036FC02C081
:101E90006FEF7FEFC6010E9495104C01689437F8F0
:101EA00082010AC00C5F1F4FFFE3F98388248394EB
:101EB000912C6501E89437F833FE2DC0522C811423
:101EC000910471F5552009F468CFB70180E290E0E4
:101ED0000E94AB105A94F6CFF801808189830E5F7F
:101EE0001F4FE4CF2801F2E04F0E511CF801C080D3
:101EF000D180692D70E036FC02C06FEF7FEFC60124
:101F00000E94A0104C018201D5CFB70180E290E081
:101F10000E94AB102A942814190409F0B0F7CECF10
:101F2000F60137FC859137FE81916F01B70190E092
:101F30000E94AB1051105A94F1E08F1A9108BFCF54
:101F4000843619F0893609F077C0F80137FE6BC086
:101F500060817181828193810C5F1F4FF32DFF7629
:101F60003F2E97FF09C090958095709561957F4FA2
:101F70008F4F9F4F689437F82AE030E0A5010E9408
:101F8000DB10C82ECA188C2C432C36FE0CC0E894EB
:101F900040F8C91440F434FE05C032FC03C0F32DF0
:101FA000FE7E4F2E892C44FE95C0FE01EC0DF11DE6
:101FB0008081803309F087C0242D297E422E842D14
:101FC0008870582E43FC95C040FE8FC09C2C821414
:101FD00018F42C0C922C981844FE91C0B70180E3A1
:101FE00090E00E94AB1042FE09C088E790E041FEFD
:101FF00002C088E590E0B7010E94AB10C91408F454
:102000008AC0CA94D12C9FEFC91AD90ACA0CDB1C0A
:10201000F60182916F01B70190E00E94AB10AC1401
:10202000BD04B1F74FCF60817181072E000C880B82
:10203000990B0E5F1F4F92CFD32CE894D4F82AE06F
:1020400030E0853739F1232D297FD22E8F3601F1EB
:1020500048F48835A9F0F701868197812B96E2E153
:102060000C945511803749F08837A9F7D4FE02C087
:102070006894D2F820E130E00DC06894D4F8F6CF2F
:1020800034FE03C0822F8660D82E20E132E002C0E9
:1020900028E030E0F801D7FE0FC0608171818281B5
:1020A00093810C5F1F4FA5010E94DB10C82ECA1838
:1020B0003D2CE89437F867CF6081718190E080E033
:1020C0000E5F1F4FF0CF42FC02C0839478CF839401
:1020D000839475CF842D867809F471CFF6CFB7013C
:1020E00080E290E00E94AB1083948214C0F3512CE4
:1020F00073CF522C5818821408F46ECFF8CF842D69
:10210000867809F47BCF8BE241FE80E247FC8DE2CA
:10211000B70190E071CFB70180E390E00E94AB106F
:102120009A946CCF8FEF9FEF99CFFC01059061508F
:1021300070400110D8F7809590958E0F9F1F0895DD
:10214000FC016150704001900110D8F78095909586
:102150008E0F9F1F08950F931F93CF93DF93182F18
:10216000092FEB018B8181FD09C01FEF0FEF812F3C
:10217000902FDF91CF911F910F91089582FF14C08E
:102180002E813F818C819D81281739073CF4E8819D
:10219000F981CF0101969983888310838E819F8175
:1021A00001969F838E83E3CFE885F985812F09957A
:1021B000892BA1F3DACFFA01AA27283051F1203177
:1021C00081F1E8946F936E7F6E5F7F4F8F4F9F4FCB
:1021D000AF4FB1E03ED0B4E03CD0670F781F891F0D
:1021E0009A1FA11D680F791F8A1F911DA11D6A0FDB
:1021F000711D811D911DA11D20D009F468943F918E
:102200002AE0269F11243019305D3193DEF6CF018C
:102210000895462F4770405D4193B3E00FD0C9F752
:10222000F6CF462F4F70405D4A3318F0495D31FDBF
:102230004052419302D0A9F7EACFB4E0A695979512
:10224000879577956795BA95C9F7009761057105E8
:1022500008959B01AC010A2E069457954795379532
:102260002795BA95C9F7620F731F841F951FA01D8C
:1022700008952F923F924F925F926F927F928F922A
:102280009F92AF92BF92CF92DF92EF92FF920F9305
:102290001F93CF93DF93CDB7DEB7CA1BDB0B0FB60F
:1022A000F894DEBF0FBECDBF09942A8839884888CC
:1022B0005F846E847D848C849B84AA84B984C88462
:1022C000DF80EE80FD800C811B81AA81B981CE0F59
:1022D000D11D0FB6F894DEBF0FBECDBFED0108953E
:1022E00010E0C2E6D0E004C0FE010E94590D219624
:0A22F000C336D107C9F7F894FFCFF9
:1022FA000101C601150002000000AD0280002001A4
:10230A0005001601050000000000000000000000A2
:10231A000000000000000000000002001500C601D5
:10232A0003001D00BC0104001B00B20100000000F4
:10233A00AC040C043904F9046A0448045C045B43E1
:10234A007C537C425D3A20253664207C2025336408
:10235A00207C2025336420E2968F496E6465783AA2
:10236A002025326420496E646578202B3A20253274
:10237A006420E2968F427574746F6E20313A20257C
:10238A0064204E725BE2ADB35D3A20256420E2968A
:10239A008F427574746F6E20323A202564000D0ADC
:0223AA00000031
:00000001FF
